:100000000C9446000C9465000C9465000C946500FB
:100010000C9465000C9465000C9465000C946500CC
:100020000C9465000C9465000C9465000C946500BC
:100030000C9465000C94DE000C9465000C94650033
:100040000C9465000C9465000C9465000C9465009C
:100050000C9465000C9465000C9465000C9465008C
:100060000C9465000C9465000C9465000C9465007C
:100070000C9465000C9465000C9465000C9465006C
:100080000C9465000C9465000C94650011241FBE4F
:10009000CFEFD0E4DEBFCDBF11E0A0E0B1E0E6E2FB
:1000A000F6E000E00BBF02C007900D92A631B10749
:1000B000D9F721E0A6E1B1E001C01D92A732B20755
:1000C000E1F70E9445020C9411030C940000CF93B9
:1000D000DF9300D01F92CDB7DEB789837B836A831D
:1000E00089818A3031F48A819B81BC018DE00E9434
:1000F000670080EC90E0FC018081882F90E08072A6
:100100009927892BB1F386EC90E02981FC012083AB
:1001100080E090E00F900F900F90DF91CF910895C5
:10012000CF93DF93CDB7DEB781E890E02BE0FC0101
:10013000208388E890E02DE730E0FC0131832083C4
:100140008FE690E022E0FC01208384E890E0FC014F
:100150001182108280910E0190910F01A0911001E7
:10016000B09111018093170190931801A093190188
:10017000B0931A018FE590E02FE530E0F90120817E
:100180002068FC0120830000DF91CF910895CF9378
:10019000DF93CDB7DEB781E890E0FC01108200006C
:1001A000DF91CF910895CF93DF93CDB7DEB781E094
:1001B000809316010000DF91CF9108951F920F9256
:1001C00000905F000F92112400905B000F922F931C
:1001D0003F934F935F936F937F938F939F93AF93CF
:1001E000BF93EF93FF93CF93DF93CDB7DEB78091AB
:1001F000170190911801A0911901B0911A0101976E
:10020000A109B1098093170190931801A0931901D6
:10021000B0931A018091170190911801A0911901D2
:10022000B0911A01892B8A2B8B2B91F40E94D30059
:1002300080910E0190910F01A0911001B0911101D8
:100240008093170190931801A0931901B0931A019C
:100250000000DF91CF91FF91EF91BF91AF919F91FE
:100260008F917F916F915F914F913F912F910F905F
:1002700000925B000F9000925F000F901F90189506
:10028000CF93DF9300D000D0CDB7DEB769837A83F8
:100290008B839C8389819A81AB81BC8180930E0181
:1002A00090930F01A0931001B093110180910E0162
:1002B00090910F01A0911001B0911101809317014D
:1002C00090931801A0931901B0931A0100000F90A8
:1002D0000F900F900F90DF91CF910895CF93DF9300
:1002E000CDB7DEB78091230190912401892B49F588
:1002F00080911201813049F4809112018F5F8093C7
:10030000120181E08093210117C080911201823097
:1003100049F4809112018F5F8093120182E08093F3
:1003200021010AC080911201833031F481E0809371
:10033000120184E080932101109224011092230184
:1003400005C0109224011092230100000000DF91EB
:10035000CF910895CF93DF93CDB7DEB7809125017C
:1003600090912601892BC1F480911301813031F4E1
:1003700088E0809320011092130109C0809113013D
:10038000882329F41092200181E0809313011092B8
:1003900026011092250105C0109226011092250118
:1003A00000000000DF91CF910895CF93DF93CDB788
:1003B000DEB780911B0190911C01009719F0019705
:1003C00021F135C080912201882339F481E090E049
:1003D00090931C0180931B0131C0809114018130E6
:1003E00031F480E180931F011092140109C08091C3
:1003F0001401882329F410921F0181E080931401D5
:1004000010921C0110921B0119C010921F018091C3
:100410002201882329F010921C0110921B010EC0AA
:1004200081E090E090931C0180931B0107C081E064
:1004300090E090931C0180931B0100000000DF916D
:10044000CF910895CF93DF93CDB7DEB780911D0193
:1004500090911E01892B89F485E290E03091200172
:1004600020912101320F20911F01230FFC012083D5
:1004700010921E0110921D0104C010921E011092D4
:100480001D010000DF91CF910895CF93DF93CDB789
:10049000DEB760970FB6F894DEBF0FBECDBF8CE21B
:1004A00091E0A0E0B0E089839A83AB83BC8388EEBF
:1004B00093E0A0E0B0E08D839E83AF83B88781E0B6
:1004C00090E0A0E0B0E089879A87AB87BC8782E0A4
:1004D00090E0A0E0B0E08D879E87AF87B88B84E284
:1004E00090E02FEFFC01208385E290E0FC01108278
:1004F00081E290E0FC01108280E290E02FEFFC01AD
:10050000208361E070E080E090E00E9440010E9462
:100510009000109224011092230110922601109253
:10052000250110921E0110921D0181E090E0909330
:100530001C0180931B0180E290E0FC01808180958A
:1005400084708093220189819A81AB81BC818C3235
:100550009140A105B10530F00E946E0119821A8206
:100560001B821C828D819E81AF81B885883E93401D
:10057000A105B10530F00E94AA011D821E821F82D2
:10058000188689859A85AB85BC85892B8A2B8B2B10
:1005900031F00E94220219861A861B861C868D85E0
:1005A0009E85AF85B8890297A105B10530F00E94FC
:1005B000D5011D861E861F86188A000080911601AF
:1005C0008823E1F31092160189819A81AB81BC8165
:1005D0000196A11DB11D89839A83AB83BC838D8154
:1005E0009E81AF81B8850196A11DB11D8D839E832B
:1005F000AF83B88789859A85AB85BC850196A11D97
:10060000B11D89879A87AB87BC878D859E85AF850D
:10061000B8890196A11DB11D8D879E87AF87B88BC4
:060620008ACFF894FFCF21
:10062600000000020000000067000000000001005A
:06063600000001010100BB
:00000001FF
