:100000000C9446000C9465000C9465000C946500FB
:100010000C9465000C9465000C9465000C946500CC
:100020000C9465000C9465000C9465000C946500BC
:100030000C9465000C94DE000C9465000C94650033
:100040000C9465000C9465000C9465000C9465009C
:100050000C9465000C9465000C9465000C9465008C
:100060000C9465000C9465000C9465000C9465007C
:100070000C9465000C9465000C9465000C9465006C
:100080000C9465000C9465000C94650011241FBE4F
:10009000CFEFD0E4DEBFCDBF11E0A0E0B1E0E8EBF0
:1000A000F7E000E00BBF02C007900D92AA31B10744
:1000B000D9F721E0AAE1B1E001C01D92AF32B20749
:1000C000E1F70E94C8020C94DA030C940000CF936D
:1000D000DF9300D01F92CDB7DEB789837B836A831D
:1000E00089818A3031F48A819B81BC018DE00E9434
:1000F000670080EC90E0FC018081882F90E08072A6
:100100009927892BB1F386EC90E02981FC012083AB
:1001100080E090E00F900F900F90DF91CF910895C5
:10012000CF93DF93CDB7DEB781E890E02BE0FC0101
:10013000208388E890E02DE730E0FC0131832083C4
:100140008FE690E022E0FC01208384E890E0FC014F
:100150001182108280910E0190910F01A0911001E7
:10016000B091110180931B0190931C01A0931D017C
:10017000B0931E018FE590E02FE530E0F90120817A
:100180002068FC0120830000DF91CF910895CF9378
:10019000DF93CDB7DEB781E890E0FC01108200006C
:1001A000DF91CF910895CF93DF93CDB7DEB781E094
:1001B00080931A010000DF91CF9108951F920F9252
:1001C00000905F000F92112400905B000F922F931C
:1001D0003F934F935F936F937F938F939F93AF93CF
:1001E000BF93EF93FF93CF93DF93CDB7DEB78091AB
:1001F0001B0190911C01A0911D01B0911E0101975E
:10020000A109B10980931B0190931C01A0931D01CA
:10021000B0931E0180911B0190911C01A0911D01C2
:10022000B0911E01892B8A2B8B2B91F40E94D30055
:1002300080910E0190910F01A0911001B0911101D8
:1002400080931B0190931C01A0931D01B0931E018C
:100250000000DF91CF91FF91EF91BF91AF919F91FE
:100260008F917F916F915F914F913F912F910F905F
:1002700000925B000F9000925F000F901F90189506
:10028000CF93DF9300D000D0CDB7DEB769837A83F8
:100290008B839C8389819A81AB81BC8180930E0181
:1002A00090930F01A0931001B093110180910E0162
:1002B00090910F01A0911001B091110180931B0149
:1002C00090931C01A0931D01B0931E0100000F909C
:1002D0000F900F900F90DF91CF910895CF93DF9300
:1002E000CDB7DEB78091280190912901892B49F57E
:1002F00080911201813049F4809112018F5F8093C7
:10030000120181E08093260117C080911201823092
:1003100049F4809112018F5F8093120182E08093F3
:1003200026010AC080911201833031F481E080936C
:10033000120184E080932601109229011092280175
:1003400005C0109229011092280100000000DF91E1
:10035000CF910895CF93DF93CDB7DEB780912A0177
:1003600090912B01892BC1F480911301813031F4DC
:1003700088E0809325011092130109C08091130138
:10038000882329F41092250181E0809313011092B3
:100390002B0110922A0105C010922B0110922A0104
:1003A00000000000DF91CF910895CF93DF93CDB788
:1003B000DEB780912C0190912D01009721F00197DB
:1003C00009F45AC06CC0809124018823D1F0809137
:1003D000150190911601A0911701B0911801019695
:1003E000A11DB11D8093150190931601A0931701D3
:1003F000B093180181E090E090932D0180932C013F
:1004000053C080912E01882391F180911501909124
:100410001601A0911701B09118010197A109B10926
:100420008093150190931601A0931701B0931801C2
:100430008091150190911601A0911701B0911801BA
:10044000892B8A2B8B2B61F481E090E0A0E0B0E057
:100450008093150190931601A0931701B093180192
:1004600081E090E090932D0180932C011DC01092AB
:100470002D0110922C0118C09091240180912E0121
:10048000892B882339F081E090E090932D018093AF
:100490002C010AC010922D0110922C0105C010925F
:1004A0002D0110922C0100000000DF91CF910895E2
:1004B000CF93DF93CDB7DEB780911F0190912001DC
:1004C000009719F0019721F135C080912701882309
:1004D00039F481E090E09093200180931F0131C0B6
:1004E00080911401813031F480E1809323011092D6
:1004F000140109C080911401882329F4109223016A
:1005000081E0809314011092200110921F0119C004
:100510001092230180912701882329F01092200155
:1005200010921F010EC081E090E090932001809313
:100530001F0107C081E090E09093200180931F018C
:1005400000000000DF91CF910895CF93DF93CDB7E6
:10055000DEB78091210190912201892B89F485E2F7
:1005600090E03091250120912601320F2091230146
:10057000230FFC012083109222011092210104C05C
:1005800010922201109221010000DF91CF91089575
:10059000CF93DF93CDB7DEB764970FB6F894DEBF85
:1005A0000FBECDBF8CE291E0A0E0B0E089839A83DA
:1005B000AB83BC8388EE93E0A0E0B0E08D839E83A4
:1005C000AF83B88781E090E0A0E0B0E089879A87A8
:1005D000AB87BC8782E090E0A0E0B0E08D879E878B
:1005E000AF87B88B88E592E0A0E0B0E0898B9A8B6A
:1005F000AB8BBC8B84E290E02FEFFC01208385E283
:1006000090E0FC01108281E290E0FC01108280E227
:1006100090E02FEFFC01208361E070E080E090E04B
:100620000E9440010E94900010922901109228011E
:1006300010922B0110922A01109222011092210196
:1006400081E090E09093200180931F0110922D0192
:1006500010922C0180E290E0FC018081882F90E0D4
:100660008170992721E0892B09F020E0822F809367
:10067000240180E290E0FC0180818095827080936B
:100680002E0180E290E0FC0180818095847080934F
:10069000270189819A81AB81BC818C329140A1056F
:1006A000B10530F00E946E0119821A821B821C82F1
:1006B0008D819E81AF81B885883E9340A105B105AB
:1006C00030F00E94AA011D821E821F821886898531
:1006D0009A85AB85BC85892B8A2B8B2B31F00E94A8
:1006E000A50219861A861B861C8680911501909199
:1006F0001601A0911701B09118012D853E854F85F7
:100700005889281739074A075B0730F00E945802BA
:100710001D861E861F86188A89899A89AB89BC899D
:1007200088359240A105B10530F00E94D501198AA3
:100730001A8A1B8A1C8A000080911A018823E1F31F
:1007400010921A0189819A81AB81BC810196A11D09
:10075000B11D89839A83AB83BC838D819E81AF81D8
:10076000B8850196A11DB11D8D839E83AF83B88787
:1007700089859A85AB85BC850196A11DB11D8987A8
:100780009A87AB87BC878D859E85AF85B889019692
:10079000A11DB11D8D879E87AF87B88B89899A89E6
:1007A000AB89BC890196A11DB11D898B9A8BAB8B3E
:0807B000BC8B50CFF894FFCF81
:1007B80000000002000000006700000000000100C7
:0A07C8000000010101020000000022
:00000001FF
